{
  "_format": "hh-sol-artifact-1",
  "contractName": "chai",
  "sourceName": "contracts/chai.sol",
  "abi": [
    {
      "inputs": [],
      "stateMutability": "nonpayable",
      "type": "constructor"
    },
    {
      "inputs": [
        {
          "internalType": "string",
          "name": "name",
          "type": "string"
        },
        {
          "internalType": "string",
          "name": "message",
          "type": "string"
        }
      ],
      "name": "buyChai",
      "outputs": [],
      "stateMutability": "payable",
      "type": "function"
    },
    {
      "inputs": [],
      "name": "getMemos",
      "outputs": [
        {
          "components": [
            {
              "internalType": "string",
              "name": "name",
              "type": "string"
            },
            {
              "internalType": "string",
              "name": "message",
              "type": "string"
            },
            {
              "internalType": "uint256",
              "name": "timestamp",
              "type": "uint256"
            },
            {
              "internalType": "address",
              "name": "from",
              "type": "address"
            }
          ],
          "internalType": "struct chai.Memo[]",
          "name": "",
          "type": "tuple[]"
        }
      ],
      "stateMutability": "view",
      "type": "function"
    },
    {
      "inputs": [
        {
          "internalType": "uint256",
          "name": "",
          "type": "uint256"
        }
      ],
      "name": "memos",
      "outputs": [
        {
          "internalType": "string",
          "name": "name",
          "type": "string"
        },
        {
          "internalType": "string",
          "name": "message",
          "type": "string"
        },
        {
          "internalType": "uint256",
          "name": "timestamp",
          "type": "uint256"
        },
        {
          "internalType": "address",
          "name": "from",
          "type": "address"
        }
      ],
      "stateMutability": "view",
      "type": "function"
    }
  ],
  "bytecode": "0x608060405234801561001057600080fd5b50336000806101000a81548173ffffffffffffffffffffffffffffffffffffffff021916908373ffffffffffffffffffffffffffffffffffffffff160217905550610e17806100606000396000f3fe6080604052600436106100345760003560e01c80636a13d85914610039578063865c517214610055578063e8dfdf0414610080575b600080fd5b610053600480360381019061004e919061069b565b6100c0565b005b34801561006157600080fd5b5061006a6102d9565b6040516100779190610932565b60405180910390f35b34801561008c57600080fd5b506100a760048036038101906100a29190610980565b6104bc565b6040516100b79493929190610a15565b60405180910390f35b60003411610103576040517f08c379a00000000000000000000000000000000000000000000000000000000081526004016100fa90610ab4565b60405180910390fd5b60008054906101000a900473ffffffffffffffffffffffffffffffffffffffff1673ffffffffffffffffffffffffffffffffffffffff166108fc349081150290604051600060405180830381858888f19350505050158015610169573d6000803e3d6000fd5b506001604051806080016040528086868080601f016020809104026020016040519081016040528093929190818152602001838380828437600081840152601f19601f82011690508083019250505050505050815260200184848080601f016020809104026020016040519081016040528093929190818152602001838380828437600081840152601f19601f8201169050808301925050505050505081526020014281526020013373ffffffffffffffffffffffffffffffffffffffff16815250908060018154018082558091505060019003906000526020600020906004020160009091909190915060008201518160000190816102699190610d0f565b50602082015181600101908161027f9190610d0f565b506040820151816002015560608201518160030160006101000a81548173ffffffffffffffffffffffffffffffffffffffff021916908373ffffffffffffffffffffffffffffffffffffffff160217905550505050505050565b60606001805480602002602001604051908101604052809291908181526020016000905b828210156104b3578382906000526020600020906004020160405180608001604052908160008201805461033090610b32565b80601f016020809104026020016040519081016040528092919081815260200182805461035c90610b32565b80156103a95780601f1061037e576101008083540402835291602001916103a9565b820191906000526020600020905b81548152906001019060200180831161038c57829003601f168201915b505050505081526020016001820180546103c290610b32565b80601f01602080910402602001604051908101604052809291908181526020018280546103ee90610b32565b801561043b5780601f106104105761010080835404028352916020019161043b565b820191906000526020600020905b81548152906001019060200180831161041e57829003601f168201915b50505050508152602001600282015481526020016003820160009054906101000a900473ffffffffffffffffffffffffffffffffffffffff1673ffffffffffffffffffffffffffffffffffffffff1673ffffffffffffffffffffffffffffffffffffffff1681525050815260200190600101906102fd565b50505050905090565b600181815481106104cc57600080fd5b90600052602060002090600402016000915090508060000180546104ef90610b32565b80601f016020809104026020016040519081016040528092919081815260200182805461051b90610b32565b80156105685780601f1061053d57610100808354040283529160200191610568565b820191906000526020600020905b81548152906001019060200180831161054b57829003601f168201915b50505050509080600101805461057d90610b32565b80601f01602080910402602001604051908101604052809291908181526020018280546105a990610b32565b80156105f65780601f106105cb576101008083540402835291602001916105f6565b820191906000526020600020905b8154815290600101906020018083116105d957829003601f168201915b5050505050908060020154908060030160009054906101000a900473ffffffffffffffffffffffffffffffffffffffff16905084565b600080fd5b600080fd5b600080fd5b600080fd5b600080fd5b60008083601f84011261065b5761065a610636565b5b8235905067ffffffffffffffff8111156106785761067761063b565b5b60208301915083600182028301111561069457610693610640565b5b9250929050565b600080600080604085870312156106b5576106b461062c565b5b600085013567ffffffffffffffff8111156106d3576106d2610631565b5b6106df87828801610645565b9450945050602085013567ffffffffffffffff81111561070257610701610631565b5b61070e87828801610645565b925092505092959194509250565b600081519050919050565b600082825260208201905092915050565b6000819050602082019050919050565b600081519050919050565b600082825260208201905092915050565b60005b83811015610782578082015181840152602081019050610767565b60008484015250505050565b6000601f19601f8301169050919050565b60006107aa82610748565b6107b48185610753565b93506107c4818560208601610764565b6107cd8161078e565b840191505092915050565b6000819050919050565b6107eb816107d8565b82525050565b600073ffffffffffffffffffffffffffffffffffffffff82169050919050565b600061081c826107f1565b9050919050565b61082c81610811565b82525050565b6000608083016000830151848203600086015261084f828261079f565b91505060208301518482036020860152610869828261079f565b915050604083015161087e60408601826107e2565b5060608301516108916060860182610823565b508091505092915050565b60006108a88383610832565b905092915050565b6000602082019050919050565b60006108c88261071c565b6108d28185610727565b9350836020820285016108e485610738565b8060005b858110156109205784840389528151610901858261089c565b945061090c836108b0565b925060208a019950506001810190506108e8565b50829750879550505050505092915050565b6000602082019050818103600083015261094c81846108bd565b905092915050565b61095d816107d8565b811461096857600080fd5b50565b60008135905061097a81610954565b92915050565b6000602082840312156109965761099561062c565b5b60006109a48482850161096b565b91505092915050565b600082825260208201905092915050565b60006109c982610748565b6109d381856109ad565b93506109e3818560208601610764565b6109ec8161078e565b840191505092915050565b610a00816107d8565b82525050565b610a0f81610811565b82525050565b60006080820190508181036000830152610a2f81876109be565b90508181036020830152610a4381866109be565b9050610a5260408301856109f7565b610a5f6060830184610a06565b95945050505050565b7f496e737566696369616e742066756e6473210000000000000000000000000000600082015250565b6000610a9e6012836109ad565b9150610aa982610a68565b602082019050919050565b60006020820190508181036000830152610acd81610a91565b9050919050565b7f4e487b7100000000000000000000000000000000000000000000000000000000600052604160045260246000fd5b7f4e487b7100000000000000000000000000000000000000000000000000000000600052602260045260246000fd5b60006002820490506001821680610b4a57607f821691505b602082108103610b5d57610b5c610b03565b5b50919050565b60008190508160005260206000209050919050565b60006020601f8301049050919050565b600082821b905092915050565b600060088302610bc57fffffffffffffffffffffffffffffffffffffffffffffffffffffffffffffffff82610b88565b610bcf8683610b88565b95508019841693508086168417925050509392505050565b6000819050919050565b6000610c0c610c07610c02846107d8565b610be7565b6107d8565b9050919050565b6000819050919050565b610c2683610bf1565b610c3a610c3282610c13565b848454610b95565b825550505050565b600090565b610c4f610c42565b610c5a818484610c1d565b505050565b5b81811015610c7e57610c73600082610c47565b600181019050610c60565b5050565b601f821115610cc357610c9481610b63565b610c9d84610b78565b81016020851015610cac578190505b610cc0610cb885610b78565b830182610c5f565b50505b505050565b600082821c905092915050565b6000610ce660001984600802610cc8565b1980831691505092915050565b6000610cff8383610cd5565b9150826002028217905092915050565b610d1882610748565b67ffffffffffffffff811115610d3157610d30610ad4565b5b610d3b8254610b32565b610d46828285610c82565b600060209050601f831160018114610d795760008415610d67578287015190505b610d718582610cf3565b865550610dd9565b601f198416610d8786610b63565b60005b82811015610daf57848901518255600182019150602085019450602081019050610d8a565b86831015610dcc5784890151610dc8601f891682610cd5565b8355505b6001600288020188555050505b50505050505056fea2646970667358221220a4dc8a1eee209029e25500236ab04d5e2bc8c37cf8bfbd306171a4133b38486064736f6c63430008110033",
  "linkReferences": {},
  "deployedLinkReferences": {}
}